:020000020000FC
:10000000B1E0A0E00AE00A950D930030E1F7B1E01D
:10001000A0E000E113D04D914030D9F700E517D0B2
:1000200043D01DD0F4CF0F930FB70F930FE304B954
:1000300000E307B90F910FBF0F9108950F930FB70A
:100040000F930C9114D00F910FBF0F9108950F9340
:100050000FB70F9345980F910FBF0F9108950F930E
:100060000FB70F93459A0F910FBF0F910895FF930C
:10007000EF930F920FB60F92F0E0E8E9E00F08F46B
:10008000F3950490449A06FE449805B80F900FBE6D
:100090000F90EF91FF910895407924301912027862
:1000A000001808034621060E1F932F931FB71F93B6
:1000B000112722271A95F1F72A95E1F73A95D1F7FA
:0A00C0001F911FBF2F911F9108959B
:00000001FF
