:020000020000FC
:1000000014D0B1E0A0E00AE00A950D930030E1F7CA
:10001000B1E0A0E030E14ED017D04D914030D1F7A3
:1000200030E51BD047D021D0F3CF0F930FB70F93FC
:100030000FE304B90FEF05B900E307B90FEF08B9F3
:100040000F910FBF0F9108950F930FB70F930C915E
:1000500014D00F910FBF0F9108950F930FB70F9307
:1000600045980F910FBF0F9108950F930FB70F93FE
:10007000459A0F910FBF0F910895FF93EF930F9241
:100080000FB60F92F0E0E4EAE00F08F4F395049065
:10009000449A06FE449805B80F900FBE0F90EF915A
:1000A000FF9108954079243019120278001808034E
:1000B0004621060E1F932F931FB71F931127222748
:1000C0001A95F1F72A95E1F73A95D1F71F911FBFDD
:0600D0002F911F9108951D
:00000001FF
