:020000020000FC
:0200000033C00B
:0200040047C0F3
:020040002CC0D2
:1000680005E005BD00936E004AE040936900E89AF8
:100078007894549A52985A9A3C9A449A3D9A459A36
:100088001FEF14B915B900271127FFCF00270AD091
:10009800189553955B3729F405D003950A3009F470
:1000A80000271895FF93EF930F920FB60F92F0E089
:1000B800E6EDE00F08F4F3950490449A06FE4498A0
:1000C80005B80F900FBE0F90EF91FF9108954079FA
:0E00D800243019120278001808034621060E83
:00000001FF
