:020000020000FC
:0200000033C00B
:020004004EC0EC
:020040003CC0C2
:1000680005E005BD00936E004AE040936900E89AF8
:100078007894549A52985A9A3C9A449A3D9A459A36
:100088001FEF14B915B900271127B1E0A0E00C93B0
:10009800B1E0A1E00C9325D0FFCF0F930FB70F93DA
:1000A800B1E0A0E000270C931CD00F910FBF0F9177
:1000B80018950F930FB70F93B1E0A1E00C9103953A
:1000C8000C930B3751F4B1E0A0E00C910AD00395E2
:1000D8000C930A3011F400270C930F910FBF0F9166
:1000E8001895FF93EF930F920FB60F92F1E0E4E1AA
:1000F800E00F08F4F3950490449A06FE449805B876
:100108000F900FBE0F90EF91FF9108954079243022
:0C01180019120278001808034621060E98
:00000001FF
